:020000040000FA
:060000000A128A110C280F
:10000800FE00030EF1000A08F2000A128A11EA291A
:100018000A128A110F28F701F801F901FA01830180
:100028000A128A111629F6002E283F309F059528B6
:100038001F083F3940389F0095281F083F398038EE
:100048009F009528C0309F0495281F083F398038A5
:100058009F009528760883120313A000A1012108A8
:10006800003A0319382829282008013A03191928C1
:10007800033A03191C28013A03192128073A0319DE
:1000880026282928C3309F05CF281F08C3390438DC
:100098009F00CF281F08C33908389F00CF281F08A2
:1000A800C3390C389F00CF281F08C33910389F0068
:1000B800CF281F08C33914389F00CF281F08C33919
:1000C80018389F00CF281F08C3391C389F00CF2835
:1000D8001F08C33920389F00CF281F08C339243888
:1000E8009F00CF281F08C33928389F00CF281F0832
:1000F800C3392C389F00CF281F08C33930389F00D8
:10010800CF281F08C33934389F00CF281F08C339A8
:1001180038389F00CF283C309F04CF28C3309F0534
:10012800CF287308A000A1012108003A03199D28CF
:1001380092282008003A03194628013A0319492849
:10014800033A03194E28013A03195328073A0319A9
:100158005828013A03195D28033A03196228013A1D
:10016800031967280F3A03196C28013A03197128F3
:10017800033A03197628013A03197B28073A031929
:100188008028013A03198528033A03198A28013A75
:1001980003198F2892287403031DD328D428D8283C
:1001A800831603139F17F528831603139F13F52847
:1001B800831603131F129F120D29831603131F168C
:1001C8009F160D29831603131F129F160D298316D8
:1001D80003131F169F120D29831603131F129F1254
:1001E8000D29750883120313A000A1012108003A04
:1001F8000319FF28F0282008013A0319DC28033ADC
:100208000319E128013A0319E628073A0319EB28EC
:10021800F028831203131F148B170B17831603136D
:100228000C1708000A128A1174220A128A11023065
:1002380083120313A3002308F300F401F50103302C
:100248000A128A1117200A128A110A128A117121B8
:100258000A128A11831203139F147703031D352989
:1002680036295829F7019F3083120313A3003C292C
:10027800A30B3B293F297A08031D432944294C290C
:10028800831203131F08C33908389F009F14582985
:100298007A03031D502951295829831203131F0873
:1002A800C3390C389F009F140A128A1188220A1237
:1002B8008A1183120313A001A00A01300A128A11BD
:1002C80010220A128A1101300A128A11C1210A1257
:1002D8008A1131290A128A110C2800300A128A114F
:1002E80095220A128A11343083120313A100F130C7
:1002F800A000A00B7D29A10B7D2930300A128A119C
:100308002E220A128A110D3083120313A100FB302A
:10031800A000A00B8D29A10B8D2930300A128A115B
:100328002E220A128A111D3083120313A100903065
:10033800A000A00B9D29A10B9D29000030300A12B6
:100348008A112E220A128A1138300A128A112E2294
:100358000A128A1108300A128A112E220A128A11E8
:1003680001300A128A112E220A128A1107300A1243
:100378008A112E220A128A11080083120313A00080
:10038800A101A201DC292108200784000A128A1190
:1003980048220A128A110A128A115E220A128A1146
:1003A800013083120313A1070318A20A0030A20721
:1003B8002108200784000A128A1148220A128A1189
:1003C800003A031DE829E929C72908008312031305
:1003D8000C1FEF29F029092A0C137A03031DF529AC
:1003E800F629FC29FA011E08F0007008F900072A0E
:1003F8007A08031D002A012A072AFA01FA0A1E08A8
:10040800F0007008F800F701F70A72088A00710E08
:100418008300FE0E7E0E090083120313A100210340
:10042800031D172A182A202A20087F3E0A128A113B
:100438002E220A128A112D2A02302106031D252A8E
:10044800262A2D2A2008BF3E0A128A112E220A12B5
:100458008A110800F60083120313061076080A12A0
:100468008A1195220A128A118312031386140B30FB
:10047800F5006230F400F40B3F2AF50B3F2A000028
:10048800831203138610080002308A000408840AC5
:10049800820700342034533431343A342034203441
:1004A8002034533432343A342034203453343334FF
:1004B8003A340034F50083120313061475080A123F
:1004C8008A1195220A128A118312031386141A308C
:1004D800F400F40B6D2A0000831203138610080041
:1004E800831603138701880183160317880189017E
:1004F80008158815831603138501860105158515CA
:100508008B170B17FA01080000300A128A112E22E5
:100518000A128A1101300A128A112E220A128A112D
:0E0528000800F3007308831203138800080014
:04400E00F120FF3F5F
:00000001FF
