:020000040000FA
:060000000A128A11162805
:10000800FE00030E83160313C7000408C8000A087D
:10001800C900831203137F0883160313CA000A1248
:100028008A118C2E0A128A11192883120313EE01E1
:1000380083160313D301831790308400D3300A1238
:100048008A11F8270A128A111030840050300A12D7
:100058008A11F8270A128A1183010A168A15072EAF
:1000680083160313BB00A130A5002508AE00752E2A
:10007800253042060319412842284E284208A50087
:100088003B0884002508831780000130A500250857
:10009800BB07752EAF01B001200884000A168A1527
:1000A8000A200A128A112E3A031D5B285C28A1280F
:1000B80030170130A5002508A007BC01BD01902814
:1000C8000A30F0000030F100831603133D08F300F6
:1000D8003C08F2000A168A1504220A128A117108CD
:1000E80083160313BD007008BC00200884000A169C
:1000F8008A150A200A128A11D03EA500FF3003187B
:100108000030A6002508BC070318BD0A2608BD074D
:100118000130A5002508A007200884000A168A15C2
:100128000A200A128A110A168A1103200A128A1151
:1001380003189F28A0286428A728BC01BD013016F1
:10014800A7283015C328013083160313A007FF30F2
:10015800200784000A168A150A200A128A11C2008A
:10016800A500A6012608003A0319BB28752E250804
:10017800003A0319872E663A0319A528752E003010
:100188002F05A50007303005A60025082604031909
:10019800CE28CF28302E301ED228D328D728063094
:1001A800BC000030BD002E08840083130008BE0088
:1001B800840A0008BF00840A0008C000840A0008F6
:1001C800C1000430A5002508AE074108F300400827
:1001D800F2003F08F1003E08F0000030F700003060
:1001E800F6000030F5000030F4000A168A15A4263F
:1001F8000A128A110318012902291F2983160313D9
:100208004108F3004008F2003F08F1003E08F00002
:100218000A168A1515210A128A1173088316031300
:10022800C1007208C0007108BF007008BE0003302A
:10023800AF040030B00483160313B501B6014108BA
:10024800F3004008F2003F08F1003E08F0000030DB
:10025800F7000030F6000030F5000030F4000A1610
:100268008A1510230A128A1103183B293C292C2AC3
:10027800031083160313400D410D823EB500FF3075
:1002880003180030B600FF30B5070318B60AFF3070
:10029800B6070330F0000030F1003608F3003508E7
:1002A800F2000A168A1504220A128A1171088316A6
:1002B8000313B6007008B5000A30F7000030F800E4
:1002C8003608FA003508F9000A168A1522250A1296
:1002D8008A11780883160313B6007708B500B61F8D
:1002E800762977297D29FF30B5070318B60AFF302C
:1002F800B6073503FF3A0A128A1540210A128A11F5
:1003080083120313410883160313BA0083120313DD
:10031800400883160313B900831203133F0883169A
:100328000313B800831203133E0883160313B700A0
:10033800410883120313A70083160313400883128E
:100348000313A600831603133F0883120313A500A3
:10035800831603133E0883120313A40083160313A2
:100368003A0883120313AB00831603133908831268
:100378000313AA0083160313380883120313A90072
:1003880083160313370883120313A8000A128A1569
:100398009F240A128A118312031327088316031352
:1003A800BA0083120313260883160313B9008312B5
:1003B8000313250883160313B800831203132408B4
:1003C80083160313B7003A08F3003908F200380817
:1003D800F1003708F0003F30F7008030F6000030B9
:1003E800F5000030F4000A168A15A4260A128A11AC
:1003F8000318FF29002A092AFF3083160313B507BB
:100408000318B60AFF30B6072C2A831603133A08D6
:10041800F3003908F2003808F1003708F0004130DD
:10042800F7002030F6000030F5000030F4000A161E
:100438008A15A4260A128A11031C232A242A2C2A84
:10044800013083160313B5070318B60A0030B60740
:10045800831603133D08803AFF0080307F02031D96
:10046800372A0D303C0203183A2A3B2A822A83167F
:1004780003133C080A168A116D230A128A11831283
:1004880003134108D5004008D4003F08D3003E08B4
:10049800D20083160313410883120313D90083166D
:1004A8000313400883120313D800831603133F086D
:1004B80083120313D700831603133E088312031312
:1004C800D6000A168A1178250A128A118312031394
:1004D800550883160313C1008312031354088316A7
:1004E8000313C00083120313530883160313BF00BA
:1004F80083120313520883160313BE0083160313D3
:100508003608803AFF0080307F02031D8D2A0A30AA
:1005180035020318902A912AE22A83160313410808
:10052800F3004008F2003F08F1003E08F0000030F8
:10053800F7000030F6000030F5000030F4000A162D
:100548008A1510230A128A110318AB2AAC2A542BD5
:1005580083160313410883120313D400831603136D
:10056800400883120313D300831603133F08831232
:100578000313D200831603133E0883120313D1001A
:100588000A168A158B250A128A1183120313540836
:10059800530452045104031DD22AD32A542B831620
:1005A80003133608803AFF0080307F02031DDE2ADD
:1005B80002303502031CE12AE22A542B8316031366
:1005C8003A08F3003908F2003808F1003708F0005B
:1005D8004030F7008930F6007030F5005F30F400E5
:1005E8000A168A15A4260A128A110318FC2AFD2A5B
:1005F800062BF73083160313B5070318B60AFF3026
:10060800B6070E2BF83083160313B5070318B60A7E
:10061800FF30B60735080A128A1540210A128A11D6
:1006280083120313410883160313BA0083120313BA
:10063800400883160313B900831203133F08831677
:100648000313B800831203133E0883160313B7007D
:100658004108F3004008F2003F08F1003E08F000AE
:100668003A08F7003908F6003808F5003708F400AA
:100678000A168A11D2200A128A11730883160313E4
:10068800B4007208B3007108B2007008B1000030FD
:10069800C1000030C0000030BF000030BE00D82BC1
:1006A80083160313410883120313D400831603131C
:1006B800400883120313D300831603133F088312E1
:1006C8000313D200831603133E0883120313D100C9
:1006D8000A168A158B250A128A11831203135408E5
:1006E80083160313B40083120313530883160313EA
:1006F800B30083120313520883160313B200831244
:100708000313510883160313B1003408F3003308A8
:10071800F2003208F1003108F00000300A168A159C
:1007280046270A128A11730883120313E900720814
:10073800E8007108E7007008E60083160313410813
:1007480083120313ED008316031340088312031367
:10075800EC00831603133F0883120313EB00831680
:1007680003133E0883120313EA000A168A15E021D0
:100778000A128A1183120313690883160313C1002E
:1007880083120313680883160313C000831203132C
:10079800670883160313BF008312031366088316C2
:1007A8000313BE00B501B601C201C20A4208A50082
:1007B80001300310A50DFF3E031DDD2B0310250D91
:1007C800693E84000A168A150A200A128A11A600B0
:1007D8000A168A150A200A128A11A7000A168A150B
:1007E8000A200A128A11A8000A168A150A200A1273
:1007F8008A11A90029083402031D0C2C2808330289
:10080800031D0C2C27083202031D0C2C260831026C
:1008180003180F2C102C112C1B2C0130A5002508B7
:10082800C2070A304206031D1A2C1B2CDA2B033090
:100838002F05A50000303005A60025082604031959
:10084800262C272C992C2D30A5003B088400250840
:10085800831780000130A5002508BB07992C4208A2
:10086800A50001300310A50DFF3E031D362C031013
:10087800250D693E84000A168A150A200A128A1173
:10088800F0000A168A150A200A128A11F1000A16BF
:100898008A150A200A128A11F2000A168A150A20F5
:1008A8000A128A11F3003408F7003308F6003208F8
:1008B800F5003108F4000A168A15BC240A128A11B8
:1008C800730883160313BA007208B9007108B800D8
:1008D8007008B7000030F3000030F2000030F1007B
:1008E8000A30F0003A08F7003908F6003808F50031
:1008F8003708F4000A168A155E230A128A1173084B
:1009080083160313BA007208B9007108B80070089A
:10091800B7003708303EA5003B0884002508831738
:1009280080000130A5002508BB070130C202420A39
:10093800031D9F2CA02C332CB42C303083160313AA
:10094800A5003B0884002508831780000130A50016
:100958002508BB07FF30B5070318B60AFF30B607EE
:100968003608803AFF0080307F02031DBD2C01301D
:1009780035020318C02CC12CA12C831603133D0883
:10098800803AFF0080307F02031DCC2C09303C02E6
:10099800031CCF2CD02CD72C083083160313A500AA
:1009A8002508C200DD2C831603133C08A500250882
:1009B800C2004208A500A6012508BC022608031C9F
:1009C800BD03BD0242080319EA2CEB2CF62C2E308D
:1009D800A5003B0884002508831780000130A50086
:1009E8002508BB0742080A128A1540210A128A11F3
:1009F80083120313410883160313AD0083120313F4
:100A0800400883160313AC00831203133F088316B0
:100A18000313AB00831203133E0883160313AA00C3
:100A28002D0883120313AB00831603132C088312BB
:100A38000313AA00831603132B0883120313A900B8
:100A4800831603132A0883120313A80083160313BB
:100A5800410883120313A700831603134008831267
:100A68000313A600831603133F0883120313A5007C
:100A7800831603133E0883120313A4000A128A156F
:100A88009F240A128A11831203132708D400260808
:100A9800D3002508D2002408D1000A168A158B2510
:100AA8000A128A1183120313540883160313B4001D
:100AB80083120313530883160313B300831203131B
:100AC800520883160313B2008312031351088316C6
:100AD8000313B100102E4208A50001300310A50D24
:100AE800FF3E031D722D0310250D693E84000A1672
:100AF8008A150A200A128A11F0000A168A150A2095
:100B08000A128A11F1000A168A150A200A128A1195
:100B1800F2000A168A150A200A128A11F30034080C
:100B2800F7003308F6003208F5003108F4000A1619
:100B38008A15BC240A128A11730883160313BA0093
:100B48007208B9007108B8007008B7000030F300E7
:100B58000030F2000030F1000A30F0003A08F700E7
:100B68003908F6003808F5003708F4000A168A151F
:100B78005E230A128A11730883160313BA007208D7
:100B8800B9007108B8007008B7003708303EA500F2
:100B98003B0884002508831780000130A50025083C
:100BA800BB074208A50001300310A50DFF3E031D39
:100BB800D82D0310250D693E84000A168A150A20CF
:100BC8000A128A11F0000A168A150A200A128A11D6
:100BD800F1000A168A150A200A128A11F2000A166A
:100BE8008A150A200A128A11F3003408F70033081C
:100BF800F6003208F5003108F4000A168A155E235B
:100C08000A128A11730883160313B4007208B3001A
:100C18007108B2007008B1000130C202420A031D17
:100C2800162E172E6F2D292E3030A5003B08840074
:100C38002508831780000130A5002508BB07FF3071
:100C4800BC070318BD0AFF30BD073C083D04031D5F
:100C58002E2E2F2E182E752E3C083D04031D352EE2
:100C6800362E442E3408330432043104031D3D2E3D
:100C78003E2E442E0130BC070318BD0A0030BD07C4
:100C88003D08803A803C031D4B2E3C084202031865
:100C98004E2E4F2E502E5F2E831603133D08803A9A
:100CA800A50080302502031D5B2E42083C02031874
:100CB8005E2E5F2E5F2E0330831603132F05A500CB
:100CC80000303005A6002508260403196C2E6D2E69
:100CD800752E2D30A5003B08840025088317800059
:100CE80049280130A007FF30200784000A168A151A
:100CF8000A200A128A11A5002508C2004208031D0D
:100D0800862E872E3C283B08840083178001080024
:100D1800831203130C1F912E922EBF2F0C138316D0
:100D280003171203031D992E9A2E282F920183125E
:100D380003131E0883160313C300430883160317FF
:100D48009100433083120313C1007F30C00000308C
:100D5800BF000030BE004030A700A030A600003021
:100D6800A5000030A4008316031711088316031387
:100D7800C300C401C501C6014608F3004508F200D6
:100D88004408F1004308F00001300A168A15462786
:100D98000A128A11730883120313AB007208AA009F
:100DA8007108A9007008A8000A128A159F240A125F
:100DB8008A11831203132708C5002608C4002508D2
:100DC800C3002408C2000A168A1190210A128A1147
:100DD80083120313410883160313D20083120313EB
:100DE800400883160313D100831203133F088316A8
:100DF8000313D000831203133E0883160313CF0096
:100E0800A130C3004308A0005208A4005108A30061
:100E18005008A2004F08A10093300A128A1134200A
:100E28000A128A11F401F40A02300A168A156A2194
:100E38000A128A119330F3000130F4000A168A1559
:100E48008A220A128A11BB2F1208031D2C2F2D2F5C
:100E5800BB2F9201920A831203131E0883160313F1
:100E6800C3004308D300433083120313C1007F300B
:100E7800C0000030BF000030BE004030A700A030E6
:100E8800A6000030A5000030A40083160313530801
:100E9800C300C401C501C6014608F3004508F200B5
:100EA8004408F1004308F00001300A168A15462765
:100EB8000A128A11730883120313AB007208AA007E
:100EC8007108A9007008A8000A128A159F240A123E
:100ED8008A11831203132708C5002608C4002508B1
:100EE800C3002408C2000A168A1190210A128A1126
:100EF80083120313410883160313CE0083120313CE
:100F0800400883160313CD00831203133F0883168A
:100F18000313CC00831203133E0883160313CB007C
:100F2800A130C3004308A0004E08A4004D08A30048
:100F38004C08A2004B08A10010300A128A11342074
:100F48000A128A11073083160313C3004308F400FA
:100F580002300A168A156A210A128A111030F30023
:100F68000130F4000A168A158A220A128A11831699
:100F780003179001900A831603134A088312031378
:100F8800FF008316031349088A0048088400470EA7
:100F98008300FE0E7E0E0900831603138701880165
:100FA800831603178801890108158815831603130A
:100FB80085018601051585158B170B1783160317F1
:100FC8009201003083160313D2000030D1000030A4
:100FD800D0000030CF000030CE000030CD0000300F
:100FE800CC000030CB00080064008001840A0406AD
:080FF800031900340406F92F6F
:1010080000300A168A15C0210A128A1501300A16FC
:101018008A15C0210A128A15080083160317D800FA
:1010280034283F30831203139F05BB288312031310
:101038001F083F3940389F00BB28831203131F083D
:101048003F3980389F00BB28C030831203139F04A8
:10105800BB28831203131F083F3980389F00BB2821
:101068005808D600D7015708003A03193C282D28FC
:101078005608013A03191528033A03191A28013AA0
:1010880003192128073A031928282D28C330831269
:1010980003139F05F728831203131F08C339043865
:1010A8009F00F728831203131F08C33908389F00CD
:1010B800F728831203131F08C3390C389F00F72839
:1010C800831203131F08C33910389F00F7288312AF
:1010D80003131F08C33914389F00F728831203131A
:1010E8001F08C33918389F00F728831203131F08F5
:1010F800C3391C389F00F728831203131F08C3390C
:1011080020389F00F728831203131F08C339243897
:101118009F00F728831203131F08C33928389F003C
:10112800F728831203131F08C3392C389F00F728A8
:10113800831203131F08C33930389F00F72883121E
:1011480003131F08C33934389F00F7288312031389
:101158001F08C33938389F00F7283C30831203131F
:101168009F04F728C330831203139F05F7288316BB
:1011780003175308D600D7015708003A0319C528A2
:10118800B6285608003A03194A28013A03194F2885
:10119800033A03195628013A03195D28073A031937
:1011A8006428013A03196B28033A03197228013A93
:1011B800031979280F3A03198028013A0319872857
:1011C800033A03198E28013A03199528073A031997
:1011D8009C28013A0319A328033A0319AA28013ABB
:1011E8000319B128B628831603175403031DFD28D5
:1011F800FE280229831603139F171F29831603133A
:101208009F131F29831603131F129F123729831652
:1012180003131F169F163729831603131F129F16D1
:101228003729831603131F169F12372983160313B2
:101238001F129F123729831603175508D600D701A6
:101248005708003A031929291A295608013A031997
:101258000629033A03190B29013A03191029073AF9
:10126800031915291A29831203131F148B170B1737
:10127800831603130C17080083120313D000D01F22
:1012880046294729F42AD009D00A5008803A123E44
:10129800031C4F295029382A0A30F7000030F8007B
:1012A8005008F200F301F21BF3036430F000003041
:1012B800F1000A168A1506240A128A157108FA001E
:1012C8007008F9000A168A1522250A128A15770865
:1012D80083120313C20001300310C20DFF3E031D29
:1012E80070290310420D593E84000A168A150A20F7
:1012F8000A128A15C3000A168A150A200A128A15C4
:10130800C4000A168A150A200A128A15C5000A1688
:101318008A150A200A128A15C6004608A700450839
:10132800A6004408A5004308A4006430F700003074
:10133800F8005008F900FA01F91BFA030A168A1591
:1013480022250A128A15770883120313C700013071
:101358000310C70DFF3E031DAC290310470D7D3E4A
:1013680084000A168A150A200A128A15C8000A1665
:101378008A150A200A128A15C9000A168A150A202F
:101388000A128A15CA000A168A150A200A128A152C
:10139800CB004B08AB004A08AA004908A900480836
:1013A800A8000A128A159F240A128A1583120313A9
:1013B8002708CF002608CE002508CD002408CC0039
:1013C8000A30F0000030F1005008F200F301F21B7F
:1013D800F3030A168A1506240A128A15700883125E
:1013E8000313C20001300310C20DFF3E031DF7298D
:1013F8000310420D353E84000A168A150A200A1287
:101408008A15C3000A168A150A200A128A15C4000A
:101418000A168A150A200A128A15C5000A168A159C
:101428000A200A128A15C6004608A7004508A60021
:101438004408A5004308A4004F08AB004E08AA00C2
:101448004D08A9004C08A8000A128A159F240A1200
:101458008A15831203132708C1002608C00025082F
:10146800BF002408BE009E2C5008803A753E031C1D
:101478003E2A3F2AC72A0A30F0000030F1005008FF
:10148800F200F301F21BF3030A168A1506240A1266
:101498008A15700883120313C20001300310C20DAD
:1014A800FF3E031D522A0310420D353E84000A16E2
:1014B8008A150A200A128A15C3000A168A150A20F4
:1014C8000A128A15C4000A168A150A200A128A15F1
:1014D800C5000A168A150A200A128A15C600460887
:1014E800A7004508A6004408A5004308A4000A3040
:1014F800F7000030F8005008F900FA01F91BFA0368
:101508000A168A1522250A128A15770883120313E8
:10151800C70001300310C70DFF3E031D8E2A0310BC
:10152800470D593E84000A168A150A200A128A15A0
:10153800C8000A168A150A200A128A15C9000A164E
:101548008A150A200A128A15CA000A168A150A205C
:101558000A128A15CB004B08AB004A08AA004908B2
:10156800A9004808A8000A128A159F240A128A1599
:10157800831203132708C1002608C0002508BF00EE
:101588002408BE009E2C5008C20001300310C20D72
:10159800FF3E031DCA2A0310420D353E84000A1679
:1015A8008A150A200A128A15C3000A168A150A2003
:1015B8000A128A15C4000A168A150A200A128A1500
:1015C800C5000A168A150A200A128A15C600460896
:1015D800C1004508C0004408BF004308BE009E2C57
:1015E8005008803A123E031CFA2AFB2AE32B0A30E1
:1015F800F7000030F8005008F200F301F21BF30383
:101608006430F0000030F1000A168A1506240A1228
:101618008A157108FA007008F9000A168A15222539
:101628000A128A15770883120313C20001300310C7
:10163800C20DFF3E031D1B2B0310420D253E8400E7
:101648000A168A150A200A128A15C3000A168A156C
:101658000A200A128A15C4000A168A150A200A12D4
:101668008A15C5000A168A150A200A128A15C600A4
:101678004608A7004508A6004408A5004308A4009A
:101688006430F7000030F8005008F900FA01F91B3F
:10169800FA030A168A1522250A128A157708831270
:1016A8000313C70001300310C70DFF3E031D572B5E
:1016B8000310470D493E84000A168A150A200A12AB
:1016C8008A15C8000A168A150A200A128A15C9003E
:1016D8000A168A150A200A128A15CA000A168A15D5
:1016E8000A200A128A15CB004B08AB004A08AA0048
:1016F8004908A9004808A8000A128A159F240A1256
:101708008A15831203132708CF002608CE00250860
:10171800CD002408CC000A30F0000030F100500859
:10172800F200F301F21BF3030A168A1506240A12C3
:101738008A15700883120313C20001300310C20D0A
:10174800FF3E031DA22B0310420D013E84000A1622
:101758008A150A200A128A15C3000A168A150A2051
:101768000A128A15C4000A168A150A200A128A154E
:10177800C5000A168A150A200A128A15C6004608E4
:10178800A7004508A6004408A5004308A4004F0880
:10179800AB004E08AA004D08A9004C08A8000A1280
:1017A8008A159F240A128A15831203132708C10079
:1017B8002608C0002508BF002408BE009E2C50083B
:1017C800803A753E031CE92BEA2B722C0A30F00094
:1017D8000030F1005008F200F301F21BF3030A167F
:1017E8008A1506240A128A15700883120313C20088
:1017F80001300310C20DFF3E031DFD2B0310420DE7
:10180800013E84000A168A150A200A128A15C300A6
:101818000A168A150A200A128A15C4000A168A1599
:101828000A200A128A15C5000A168A150A200A1201
:101838008A15C6004608A7004508A6004408A50062
:101848004308A4000A30F7000030F8005008F900F7
:10185800FA01F91BFA030A168A1522250A128A15B3
:10186800770883120313C70001300310C70DFF3E2A
:10187800031D392C0310470D253E84000A168A15CE
:101888000A200A128A15C8000A168A150A200A129E
:101898008A15C9000A168A150A200A128A15CA006A
:1018A8000A168A150A200A128A15CB004B08AB00C3
:1018B8004A08AA004908A9004808A8000A128A1577
:1018C8009F240A128A15831203132708C1002608C9
:1018D800C0002508BF002408BE009E2C5008C20086
:1018E80001300310C20DFF3E031D752C0310420D7D
:1018F800013E84000A168A150A200A128A15C300B6
:101908000A168A150A200A128A15C4000A168A15A8
:101918000A200A128A15C5000A168A150A200A1210
:101928008A15C6004608C1004508C0004408BF0023
:101938004308BE0008008312031327088039AC004F
:101948002C08B1002708AC002C07AD002D08B70003
:10195800A61FAF2CB02CB12C371437080319B52C9F
:10196800B62CC52C370A031DBA2CBB2CC32C00304F
:10197800A7000030A6000030A5000030A400A6177C
:10198800CD2C0030A7000030A6000030A5000030A4
:10199800A4002B088039AC002C08B1062B08AC0039
:1019A8002C07AD002D08B600AA1FDB2CDC2CDD2C83
:1019B800361436080319E12CE22CF12C360A031DE3
:1019C800E62CE72CEF2C0030AB000030AA000030EA
:1019D800A9000030A800AA17F92C0030AB0000308D
:1019E800AA000030A9000030A80036080319FD2C11
:1019F800FE2C032D3708031D022D032D0C2D00305E
:101A0800A7000030A6000030A5000030A400FF2F7A
:101A18002408AC002C08F0002A080A168A15292286
:101A28000A128A15710883120313BD007008BC00DE
:101A38003C08AC00AD01AE01AF012F08B5002E087F
:101A4800B4002D08B3002C08B2003D08AC00AD016D
:101A5800AE01AF012F08BB002E08BA002D08B9004F
:101A68002C08B8002508AC002C08F00029080A1634
:101A78008A1529220A128A15710883120313BD00D8
:101A88007008BC003C08AC00AD01AE01AF012C08E9
:101A9800B2072D0803110318013E0319542DB3078B
:101AA8002E0803110318013E03195B2DB4072F08F4
:101AB80003110318013E0319622DB5073D08AC0058
:101AC800AD01AE01AF012C08B8072D0803110318AA
:101AD800013E0319702DB9072E0803110318013EA2
:101AE8000319772DBA072F0803110318013E0319AC
:101AF8007E2DBB072608AC002C08F00028080A1623
:101B08008A1529220A128A15710883120313BD0047
:101B18007008BC003C08AC00AD01AE01AF012C0858
:101B2800B2072D0803110318013E03199C2DB307B2
:101B38002E0803110318013E0319A32DB4072F081B
:101B480003110318013E0319AA2DB5073D08AC007F
:101B5800AD01AE01AF012C08B8072D080311031819
:101B6800013E0319B82DB9072E0803110318013EC9
:101B78000319BF2DBA072F0803110318013E0319D3
:101B8800C62DBB070830AC000310B20DB30DB40D61
:101B9800B50DAC0BC82D2508AC002C08F0002808A2
:101BA8000A168A1529220A128A1571088312031344
:101BB800BD007008BC003C08AC003D08AD00AE019B
:101BC800AF012C08B2072D0803110318013E0319B1
:101BD800EE2DB3072E0803110318013E0319F52D46
:101BE800B4072F0803110318013E0319FC2DB5078C
:101BF8002408AC002C08F00029080A168A152922A6
:101C08000A128A15710883120313BD007008BC00FC
:101C18003C08AC003D08AD00AE01AF012C08B2078E
:101C28002D0803110318013E03191B2EB3072E08B4
:101C380003110318013E0319222EB4072F080311BC
:101C48000318013E0319292EB5070830AC0003100C
:101C5800B20DB30DB40DB50DAC0B2B2E2408AC0092
:101C68002C08F00028080A168A1529220A128A1553
:101C7800710883120313BD007008BC003C08AC0057
:101C88003D08AD00AE01AF012C08B2072D080311C5
:101C98000318013E0319512EB3072E080311031828
:101CA800013E0319582EB4072F0803110318013EEB
:101CB80003195F2EB5072508AC002C08F0002A0888
:101CC8000A168A1529220A128A1571088312031323
:101CD800BD007008BC003C08AC003D08AD00AE017A
:101CE800AF012C08B8072D0803110318013E03198A
:101CF8007E2EB9072E0803110318013E0319852EFD
:101D0800BA072F0803110318013E03198C2EBB07CD
:101D18002608AC002C08F00029080A168A15292282
:101D28000A128A15710883120313BD007008BC00DB
:101D38003C08AC003D08AD00AE01AF012C08B80767
:101D48002D0803110318013E0319AB2EB9072E08FD
:101D580003110318013E0319B22EBA072F08031105
:101D68000318013E0319B92EBB072608AC002C083E
:101D7800F0002A080A168A1529220A128A157108FB
:101D880083120313BD007008BC003C08AC003D087A
:101D9800AD00AE01AF0108300310AC0DAD0DAE0DB6
:101DA800AF0DFF3E031DD02E2C08B8072D080311D8
:101DB8000318013E0319E12EB9072E080311031871
:101DC800013E0319E82EBA072F0803110318013E34
:101DD8000319EF2EBB073208AC003308AD003408F6
:101DE800AE003508AF0018300310AF0CAE0CAD0CC8
:101DF800AC0CFF3E031DF82E2C08B8072D08031164
:101E08000318013E0319092FB9072E0803110318F7
:101E1800013E0319102FBA072F0803110318013EBA
:101E28000319172FBB070830AC000310B20DB30D10
:101E3800B40DB50DAC0B192F37083607AC00AD0142
:101E4800AD0D2C08823EBC002D080318013EFF3E54
:101E5800BD004B2F0130AC000310B80DB90DBA0D01
:101E6800BB0DAC0B302FB51F3A2F3B2F3C2F38142E
:101E78000130AC000310B20DB30DB40DB50DAC0BB1
:101E88003E2FFF30BC070318BD0AFF30BD07BA1F3D
:101E98004E2F4F2F2E2FB601B51F532F542F702FB3
:101EA800FF303205AC00FF303305AD00FF3034059C
:101EB800AE007F303505AF002F082E042D042C040A
:101EC8000319672F682F6B2FB601B60A702F381CBD
:101ED8006E2F6F2F702F682F36080319742F752FE8
:101EE800A62F0130B807003003180130B9070030B9
:101EF80003180130BA07003003180130BB073B1C38
:101F0800862F872FA62F3808AC003908AD003A086D
:101F1800AE003B08AF000130B0002F0DAF0CAE0C87
:101F2800AD0CAC0CB00B912F2F08BB002E08BA00DB
:101F38002D08B9002C08B8000130BC070318BD0AE9
:101F48000030BD073D08803AFF0080307F02031D46
:101F5800AF2FFF303C02031CB22FB32FBE2F7F30B0
:101F680083120313BB008030BA000030B900003080
:101F7800B800F32F831203133D08803AFF00803026
:101F88007F02031DC92F01303C020318CC2FCD2F2F
:101F9800D92F003083120313BB000030BA00003081
:101FA800B9000030B800B101F32F831203133C08C5
:101FB800AC002C08B700FF30B805FF30B9057F30FA
:101FC800BA050030BB05371CEA2FEB2FEC2FBA17E8
:101FD8003708AC0003102C0CAD002D08BB003108ED
:101FE800AC002C08BB043B08A7003A08A600390837
:081FF800A5003808A400080050
:10200600F100F0013A30710203180A280B28132850
:1020160030307102031C102811281328F001F00A31
:10202600700C08007008F8007108F9007208FA00D0
:102036000310790D7A0DFB007B0883120313A500AC
:102046002508031D2728282831280030F3000030F2
:10205600F2000030F1000030F000D1287408F800DA
:102066007508F9007608FA000310790D7A0DFB0061
:102076007B08A4002408031D412842284328282859
:10208600F117FF30F005FF30F1050030F205F517C6
:10209600FF30F405FF30F5050030F6050030A300EB
:1020A6000030A2000030A1000030A0007F30A50261
:1020B60098302407F8007808A5021830F800780848
:1020C600A4000130F8000310A00DA10DA20DA30D70
:1020D600F80B662876087202031D772875087102C8
:1020E600031D772874087002031C7A287B2886282B
:1020F6007408F0027508031C750FF1027608031CBC
:10210600760AF202201401300310F00DF10DF20DE3
:10211600FF3E031D87280130A402031D932894283F
:102126006428A51F97289828B2282508803A973E44
:1021360003189E289F28A028282801300310A30CE6
:10214600A20CA10CA00CFF3E031DA1280130F80033
:102156007808A507031DB028B128A028C92818307B
:102166002502031CB728B828C42828280130F800FF
:102176000310A00DA10DA20DA30DF80BBB28013075
:10218600A5022508031DC828C928B9282308F30075
:102196002208F2002108F1002008F00008000310D0
:1021A600720D730DF800780883120313A500250835
:1021B600031DDE28DF28E8280030F3000030F20097
:1021C6000030F1000030F0008F290310760D770DF6
:1021D600F8007808A4002408031DF228F328F42840
:1021E600DF28F217FF30F005FF30F105FF30F2056A
:1021F6000030F305F617FF30F405FF30F505FF3024
:10220600F6050030F7050030A3000030A2000030CC
:10221600A1000030A0007F30A502A0302407F800FE
:102226007808A5022030F8007808A4000130F800EC
:102236000310A00DA10DA20DA30DF80B1B29770805
:102246007302031D302976087202031D30297508B2
:102256007102031D302974087002031C33293429C6
:1022660043297408F0027508031C750FF1027608FD
:10227600031C760FF2027708031C770FF302201473
:102286000130F8000310F00DF10DF20DF30DF80B0F
:1022960045290130A402031D512952291929A51FD8
:1022A6005529562970292508803A9F3E03185C292E
:1022B6005D295E29DF2801300310A30CA20CA10CB6
:1022C600A00CFF3E031D5F290130F8007808A50722
:1022D600031D6E296F295E29872920302502031CDC
:1022E600752976298229DF280130F8000310A00D10
:1022F600A10DA20DA30DF80B79290130A502250821
:10230600031D8629872977292308F3002208F2006E
:102316002108F1002008F000080083120313450885
:102326008039C6004608CF004508C6004607C700E4
:102336004708D600C41FA029A129A2295614560869
:102346000319A629A729B729560A031DAB29AC29C3
:10235600B4290030C5000030C4000030C30000308E
:10236600C200C417C501BF290030C5000030C40033
:102376000030C3000030C20041088039C60046085C
:10238600CF064108C6004607C7004708D700C01F4A
:10239600CD29CE29CF29571457080319D329D42973
:1023A600E429570A031DD829D929E1290030C1009B
:1023B6000030C0000030BF000030BE00C017C101B1
:1023C600EC290030C1000030C0000030BF000030F2
:1023D600BE00410840043F043E04031DF329F429CE
:1023E6000D2A0030C5000030C4000030C3000030A4
:1023F600C2008030C4047F30C5044F08C6004608BA
:10240600C5044508C1004408C0004308BF0042088F
:10241600BE006C2B5608031D112A122A1B2A0030F7
:10242600C1000030C0000030BF000030BE006C2B81
:102436005608C600C7014708C90057084602C80023
:10244600031CC90348087F3ED00049080318013E13
:10245600003ED1004508CE004408CD004308CC001C
:102466004208CB000030C5000030C4000030C30075
:102476000030C2000030D5000030D4000030D30058
:102486000030D200D701912A570803194B2A4C2A4B
:102496006C2A0130C6000310CB0DCC0DCD0DCE0D30
:1024A600C60B4E2A0130C6000310C20DC30DC40D63
:1024B600C50DC60B572AD51F612A622A632A421404
:1024C6000130C6000310D20DD30DD40DD50DC60BA9
:1024D600652A41084E02031D7A2A40084D02031D53
:1024E6007A2A3F084C02031D7A2A3E084B02031C37
:1024F6007D2A7E2A8D2A55173E08CB023F08031CEB
:102506003F0FCC024008031C400FCD024108031CBC
:10251600410FCE020130C6004608D7071A305702CF
:10252600031C962A972A472A4E084D044C044B044E
:1025360003199E2A9F2ABE2A5214BE2A0130C600BB
:102546000310C20DC30DC40DC50DC60BA32AD51F9E
:10255600AD2AAE2AAF2A42140130C6000310D20DAE
:10256600D30DD40DD50DC60BB12AFF30D0070318F5
:10257600D10AFF30D107C41FC12AC22AA12AD70116
:10258600D51FC62AC72AE32AFF305205C600FF30E8
:102596005305C700FF305405C8007F305505C900F4
:1025A60049084804470446040319DA2ADB2ADE2AC6
:1025B600D701D70AE32A421CE12AE22AE32ADB2AC8
:1025C60057080319E72AE82A192B0130C2070030F9
:1025D60003180130C307003003180130C407003068
:1025E60003180130C507451CF92AFA2A192B420897
:1025F600C6004308C7004408C8004508C9000130A2
:10260600CA00490DC90CC80CC70CC60CCA0B042B52
:102616004908C5004808C4004708C3004608C20068
:102626000130D0070318D10A0030D1075108803A8B
:10263600FF0080307F02031D222BFF305002031C57
:10264600252B262B342BFF3083120313D0000030AA
:10265600D1000030C5000030C4000030C300003097
:10266600C200831203135108803AFF0080307F02B4
:10267600031D3F2B013050020318422B432B502BD6
:1026860083120313D001D1010030C5000030C4000D
:102696000030C3000030C200CF018312031350087C
:1026A600C6004608D600561C592B5A2B5C2BC4175D
:1026B600602B7F30C6004608C4055608C6000310C6
:1026C600460CC7004708C5004F08C6004608C504A3
:1026D600042A080083120313D1006E305102031C32
:1026E600752B762B832C3F30A7000030A6000030D8
:1026F600A5000030A4006430F6000030F700510851
:10270600C200C3014208F8004308F9000A168A15F8
:10271600CC220A168A11760883120313C4000130EC
:102726000310C40DFF3E031D932B0310440D7D3E85
:1027360084000A168A150A200A168A11C5000A1686
:102746008A150A200A168A11C6000A168A150A2050
:102756000A168A11C7000A168A150A200A168A114D
:10276600C8004808AB004708AA004608A900450863
:10277600A8000A128A159F240A168A1183120313C7
:102786002708D0002608CF002508CE002408CD0053
:102796000A30F6000030F7005108C200C3014208B3
:1027A600F2004308F3006430F0000030F1000A162E
:1027B6008A1550220A168A117108F9007008F80065
:1027C6000A168A15CC220A168A1176088312031372
:1027D600C40001300310C40DFF3E031DED2B031092
:1027E600440D593E84000A168A150A200A168A11D3
:1027F600C5000A168A150A200A168A11C6000A1684
:102806008A150A200A168A11C7000A168A150A208E
:102816000A168A11C8004808A7004708A6004608F5
:10282600A5004508A4005008AB004F08AA004E08B2
:10283600A9004D08A8000A128A159F240A168A11B3
:10284600831203132708CC002608CB002508CA00EC
:102856002408C9000A30F0000030F1005108C20017
:10286600C3014208F2004308F3000A168A155022F3
:102876000A168A11700883120313C400013003106C
:10288600C40DFF3E031D422C0310440D353E84004B
:102896000A168A150A200A168A11C5000A168A150A
:1028A6000A200A168A11C6000A168A150A200A166E
:1028B6008A11C7000A168A150A200A168A11C80044
:1028C6004808A7004708A6004608A5004508A40032
:1028D6004C08AB004B08AA004A08A9004908A80002
:1028E6000A128A159F240A168A11831203132708CF
:1028F600C1002608C0002508BF002408BE00772DA9
:102906000B305102031C882C892C342D3F30A70034
:102916000030A6000030A5000030A4000A30F60002
:102926000030F7005108C200C3014208F80043080E
:10293600F9000A168A15CC220A168A11760883121D
:102946000313C40001300310C40DFF3E031DA62C63
:102956000310440D593E84000A168A150A200A16E9
:102966008A11C5000A168A150A200A168A11C60097
:102976000A168A150A200A168A11C7000A168A1527
:102986000A200A168A11C8004808AB004708AA00A0
:102996004608A9004508A8000A128A159F240A16A7
:1029A6008A11831203132708D0002608CF002508B2
:1029B600CE002408CD000A30F0000030F1005108A6
:1029C600C200C3014208F2004308F3000A168A1542
:1029D60050220A168A11700883120313C4000130AC
:1029E6000310C40DFF3E031DF32C0310440D353EAA
:1029F60084000A168A150A200A168A11C5000A16C4
:102A06008A150A200A168A11C6000A168A150A208D
:102A16000A168A11C7000A168A150A200A168A118A
:102A2600C8004808A7004708A6004608A5004508AC
:102A3600A4005008AB004F08AA004E08A9004D0894
:102A4600A8000A128A159F240A168A1183120313F4
:102A56002708C1002608C0002508BF002408BE00BC
:102A6600772D3F30A7000030A6000030A5000030CB
:102A7600A4005108C20001300310C20DFF3E031D21
:102A86003F2D0310420D353E84000A168A150A2092
:102A96000A168A11C3000A168A150A200A168A110E
:102AA600C4000A168A150A200A168A11C5000A16D3
:102AB6008A150A200A168A11C6004608AB00450880
:102AC600AA004408A9004308A8000A128A159F24F0
:102AD6000A168A11831203132708C1002608C000AC
:102AE6002508BF002408BE000800831203135508FA
:102AF6008039DA005A08E2005508DA005A07DB0086
:102B06005B08E400D41F882D892D8A2D641464087F
:102B160003198E2D8F2D9F2D640A031D932D942D41
:102B26009C2D0030D5000030D4000030D30000309A
:102B3600D200D417D501A72D0030D5000030D4001F
:102B46000030D3000030D20059088039DA005A0824
:102B5600E300630862060319B12DB22DB32D621787
:102B66005908DA005A07DB005B08E300D81FBC2DC2
:102B7600BD2DBE2D631463080319C22DC32DD32D9D
:102B8600630A031DC72DC82DD02D0030D900003093
:102B9600D8000030D7000030D600D817D901DB2D79
:102BA6000030D9000030D8000030D7000030D60001
:102BB600640863020318E02DE12D252E621FE42D23
:102BC600E52DE92D8030DA005A08E2066408DA00BD
:102BD6005A08E5006308DA005A08E4006508DA00D6
:102BE6005A08E3005208DA005A08E5005608DA00E7
:102BF6005A08D2006508DA005A08D6005308DA00E7
:102C06005A08E5005708DA005A08D3006508DA00C2
:102C16005A08D7005408DA005A08E5005808DA00BE
:102C26005A08D4006508DA005A08D8005508DA00B0
:102C36005A08E5005908DA005A08D5006508DA008E
:102C46005A08D900E5016308DA00DB015B08DD00FC
:102C560064085A02DC00031CDD035D08803AFF00AD
:102C660080307F02031D392E1A305C02031C3C2E75
:102C76003D2E7A2E8312031355085404530452042E
:102C8600031D462E482E0130492E0030DA005A0820
:102C9600E5000030D5000030D4000030D30000300D
:102CA600D2006308DA005A08E400822E651C5C2E06
:102CB6005D2E662E6508DA0003105A0C0138DB001B
:102CC6005B08E500682E0310E50C521C6B2E6C2E7B
:102CD6006D2EE5170130DA00550DD50CD40CD30C4A
:102CE600D20CDA0B6F2E0130DA005A08E407831291
:102CF600031363086402031C812E822E592E621B65
:102D0600852E862ED12E6408031D8A2E8B2E942E98
:102D16000030D5000030D4000030D3000030D2009F
:102D2600FF2F5608D207570803110318013E03194F
:102D36009D2ED307580803110318013E0319A42E2C
:102D4600D407590803110318013E0319AB2ED50702
:102D5600551CAE2EAF2E852F651CB22EB32EBC2E63
:102D66006508DA0003105A0C0138DB005B08E50041
:102D7600BE2E0310E50C521CC12EC22EC32EE51723
:102D86000130DA00550DD50CD40CD30CD20CDA0B6D
:102D9600C52E0130DA005A08E407852F5508803A17
:102DA600FF005908803A7F02031DE32E580854029B
:102DB600031DE32E57085302031DE32E5608520245
:102DC6000318E62EE72E3F2FFF30DA00FF30DB0038
:102DD600FF30DC00FF30DD005608DE005708DF005C
:102DE6005808E0005908E1005208DE025308031CA7
:102DF600530FFE2EFF2EDF025408031C540F042F20
:102E0600052FE0025508031C550F0A2F0B2FE10270
:102E16005E08DA075F0803185F0F122F132FDB0710
:102E260060080318600F182F192FDC0761080318B4
:102E3600610ADD075D08D5005C08D4005B08D30095
:102E46005A08D2008030DA005A08E206E509E50A97
:102E56006508031D2F2F302F4D2F0130D20700306C
:102E660003180130D307003003180130D4070030AF
:102E760003180130D5074D2F5608D2025708031CF8
:102E8600570FD3025808031C580FD4025908031CC5
:102E9600590FD5025508540453045204031D542FE8
:102EA600552F812F6508031D592F5A2F812F00306A
:102EB600D5000030D4000030D3000030D200FF2F00
:102EC6000130DA000310D20DD30DD40DD50DDA0B77
:102ED600652FE51F6F2F702F712F5214651C742FED
:102EE600752F782F0314E50D7A2F0310E50D64086E
:102EF60003197E2F7F2F812F0130E402D41F842FE8
:102F0600852F632FE301E51F892F8A2F982F6508E8
:102F16007F3903198F2F902F932FE301E30A982F00
:102F2600521C962F972F982F902F630803199C2FCA
:102F36009D2FD12F0130D207003003180130D3075F
:102F4600003003180130D407003003180130D507CC
:102F5600551CAE2FAF2FD12F5208DA005308DB00D5
:102F66005408DC005508DD000130DE005D0DDD0C87
:102F7600DC0CDB0CDA0CDE0BB92F5D08D5005C0827
:102F8600D4005B08D3005A08D200640A0319CC2F78
:102F9600CD2FD12F0130DA005A08E407640A03194D
:102FA600D52FD62FDB2F6408031DDA2FDB2FE92F51
:102FB6000030D5000030D4000030D3000030D200FD
:102FC6006408031DE72FE82FE92FE201641CEC2FAC
:102FD600ED2FEF2FD417F32F7F30DA005A08D405E0
:102FE6006408DA0003105A0CDB005B08D500E21F08
:102FF600FD2FFE2FFF2FD5170800FF1B0A2883136E
:103006007F1883170008840A0319FF0A080018307E
:103016008A000408840A82070034003400348034AD
:103026003F34003400342034413400340034C83492
:103036004234003400347A344434003440341C348E
:10304600463400345034C3344734003424347434A2
:1030560049348034963418344B342034BC34BE346E
:103066004C3428346B346E344E34F934023415340F
:103076005034EC347834AD346034CA34F2344934E4
:1030860071340034003480343F34CD34CC34CC3405
:103096003D340A34D73423343C346F341234833409
:1030A6003A341734B734D1343834AC34C5342734D1
:1030B6003734BD343734863435349534BF34D6345A
:1030C60033347734CC342B3432345F34703489342F
:1030D6003034FF34E634DB342E340834E5343C3403
:1030E6001E3460344234A2340D34013400340034CA
:1030F60000340A34003400340034643400340034BC
:103106000034E834033400340034103427340034F7
:103116000034A034863401340034403442340F3451
:10312600003480349634983400340034E134F53475
:1031360005340034CA349A343B34203453343134A1
:103146003A34203420342034533432343A34203460
:103156002034533433343A34003425342E34323464
:0A316600663400345634203400347F
:10320E00F00070088312031388000800831603175A
:10321E00D300530883120313880008007308720446
:10322E007104700403191C291D291F298030F3060F
:10323E000800F20083120313061472080A168A1588
:10324E0007210A168A158312031386141A30F10009
:10325E00F10B2F2900008312031386100800F300D0
:10326E0083120313061073080A168A1507210A160D
:10327E008A158312031386140B30F2006230F100AC
:10328E00F10B4729F20B4729000083120313861016
:10329E000800831603139816181283120313981737
:1032AE0083160313181383120313181383160317AD
:1032BE008711623083160313990018159A01831231
:1032CE00031318160800F5007503031D6F297029E6
:1032DE00782974087F3E0A168A1536210A168A1531
:1032EE00852902307506031D7D297E2985297408DE
:1032FE00BF3E0A168A1536210A168A15080083164D
:10330E000317D500831203130614831603175508EB
:10331E000A168A150D210A168A15831203138614AE
:10332E00193083160317D400D40B9B299E298312C0
:10333E0003138610080083160317D8005803031DC5
:10334E00A929AA29B22957087F3E0A168A15C02133
:10335E000A168A15BF2902305806031DB729B82947
:10336E00BF295708BF3E0A168A15C0210A168A15AC
:10337E00080083160317D600831203130610831654
:10338E00031756080A168A150D210A168A15831276
:10339E00031386140B3083160317D5006130D40047
:1033AE00D40BD729D50BD729DC298312031386100A
:1033BE000800803083120313E9066D08D5006C08EF
:1033CE00D4006B08D3006A08D2006908D9006808D7
:1033DE00D8006708D7006608D6000A168A11782525
:1033EE000A168A15831203135508E9005408E800DB
:1033FE005308E7005208E6000800F401F501701CBE
:10340E00092A0A2A102A7208F4070318F50A730803
:10341E00F50701300310F20DF30DFF3E031D112AC7
:10342E0001300310F10CF00CFF3E031D182A70083A
:10343E007104031D232A242A062A7508F100740834
:10344E00F0000800F800F401F5017008F200F30135
:10345E007208F6007308F700781C362A372A3D2AC0
:10346E007608F4070318F50A7708F50701300310FC
:10347E00F60DF70DFF3E031D3E2A0310F80C7808DB
:10348E00031D4A2A4B2A332A7508F1007408F000EE
:10349E000800700871040319552A562A852AF50169
:1034AE00F50A642A01300310F00DF10DFF3E031DE5
:1034BE005A2A0130F4007408F507F11F672A682AAA
:1034CE00592A71087302031D6E2A70087202031CBA
:1034DE00712A722A782A7008F2027108031CF3030B
:1034EE00F30201300310F10CF00CFF3E031D792A9C
:1034FE000130F502031D842A852A682A7308F1001B
:10350E007208F0000800F801F901AF2A7808730775
:10351E00F6007408F5000318F50AF81F972AF5034C
:10352E007508F700770883120313FF0076088400EE
:10353E000A168A1500200A168A150A168A152021DF
:10354E000A168A150130F8070318F90A0030F90730
:10355E0078087307F6007408F5000318F50AF81FCB
:10356E00B92AF5037508F700770883120313FF00D5
:10357E00760884000A168A1500200A168A15003A63
:10358E00031DCA2ACB2A8D2A0800FB01FC017608EE
:10359E0077040319D32AD42A0B2BFD01FD0AE22A44
:1035AE0001300310F60DF70DFF3E031DD82A013032
:1035BE00FA007A08FD07F71FE52AE62AD72A013016
:1035CE000310FB0DFC0DFF3E031DE72A7708790261
:1035DE00031DF32A76087802031CF62AF72AFE2A20
:1035EE007608F8027708031CF903F9027B14013000
:1035FE000310F70CF60CFF3E031DFF2A0130FD02EF
:10360E00031D0A2B0B2BE62A7C08F7007B08F6001D
:10361E00080000307005F80000307105F9008030A8
:10362E007205FA007F307305FB007B087A0479047B
:10363E007804031D232B242B2C2B0030F300003099
:10364E00F2000030F1000030F00000307405F80098
:10365E0000307505F90080307605FA007F30770569
:10366E00FB007B087A0479047804031D3F2B402B62
:10367E00482B0030F7000030F6000030F500003027
:10368E00F40077087306031D562B76087206031D89
:10369E00562B75087106031D562B740870060319F8
:1036AE00592B5A2B5C2B03105D2B03140800730847
:1036BE007204710470040319652B662BA92BF90192
:1036CE00F90A762B0130F8000310F00DF10DF20D12
:1036DE00F30DF80B6B2B0130F8007808F907F31F88
:1036EE00792B7A2B692B73087702031D882B7208AE
:1036FE007602031D882B71087502031D882B700836
:10370E007402031C8B2B8C2B9A2B7008F4027108FD
:10371E00031C710FF5027208031C720FF602730878
:10372E00031C730FF70201300310F30CF20CF10CB3
:10373E00F00CFF3E031D9B2B0130F902031DA82B3D
:10374E00A92B7A2B7708F3007608F2007508F100A2
:10375E007408F000080083160317DB01DC01E32B6D
:10376E00831603175B085607D9005708D8000318AD
:10377E00D80ADB1FC32BD803831603175808DA00A9
:10378E005A0883120313FF00831603175908840087
:10379E00831203130A168A1500200A168A150A16B2
:1037AE008A1586210A168A15013083160317DB0740
:1037BE000318DC0A0030DC075B085607D9005708EF
:1037CE00D8000318D80ADB1FED2BD8038316031776
:1037DE005808DA005A0883120313FF0083160317E2
:1037EE0059088400831203130A168A1500200A163C
:1037FE008A15003A031D042C052CB72B0800F60180
:10380E00F31F0A2C0B2C122CF209F309F20A0319DE
:10381E00F30AF601F60AF11F152C162C1B2CF009D3
:10382E00F109F00A0319F10A700871040319202C2A
:10383E00212C502CF501F50A2F2C01300310F00D20
:10384E00F10DFF3E031D252C0130F4007408F50721
:10385E00F11F322C332C242C71087302031D392CCA
:10386E0070087202031C3C2C3D2C432C7008F20293
:10387E007108031CF303F30201300310F10CF00C7A
:10388E00FF3E031D442C0130F502031D4F2C502C1E
:10389E00332C76080319542C552C5A2CF209F309A3
:1038AE00F20A0319F30A7308F1007208F000080017
:1038BE00273083160317D800F430D700D70B652CAA
:1038CE00D80B652C000000300A168A150D210A1639
:1038DE008A15343083160317D800F130D700D70B72
:1038EE00762CD80B762C30300A168A15C0210A1683
:1038FE008A150D3083160317D800FB30D700D70B6F
:10390E00862CD80B862C30300A168A15C0210A1642
:10391E008A15693083160317D700D70B942C972C72
:10392E0030300A168A15C0210A168A1538300A1642
:10393E008A15C0210A168A1510300A168A15C0215A
:10394E000A168A1501300A168A15C0210A168A151A
:10395E0006300A168A15C0210A168A150C300A1668
:10396E008A15C0210A168A1508000030FC000030A6
:10397E00FB000030FA000030F90073087204710485
:10398E0070040319CB2CCC2C192DFD01FD0ADC2C57
:10399E000130F8000310F00DF10DF20DF30DF80BE0
:1039AE00D12C0130F8007808FD07F31FDF2CE02C36
:1039BE00CF2C0130F8000310F90DFA0DFB0DFC0DA4
:1039CE00F80BE22C73087702031DF72C72087602AF
:1039DE00031DF72C71087502031DF72C7008740275
:1039EE00031CFA2CFB2C0A2D7008F4027108031C20
:1039FE00710FF5027208031C720FF6027308031C96
:103A0E00730FF702791401300310F30CF20CF10C62
:103A1E00F00CFF3E031D0B2D0130FD02031D182D72
:103A2E00192DE02C7C08F3007B08F2007A08F100D7
:103A3E007908F000080083120313A101F81F282D46
:103A4E00292D302DF709F809F70A0319F80AA101F3
:103A5E00A10AFA1F332D342D3D2DF909FA09F90A61
:103A6E000319FA0A0130FB007B08A106A201A3018B
:103A7E00770878040319442D452D7C2DA001A00A4A
:103A8E00532D01300310F70DF80DFF3E031D492D88
:103A9E000130FB007B08A007F81F562D572D482D2F
:103AAE0001300310A20DA30DFF3E031D582D780803
:103ABE007A02031D642D77087902031C672D682D89
:103ACE006F2D7708F9027808031CFA03FA02221404
:103ADE0001300310F80CF70CFF3E031D702D013062
:103AEE00A002031D7B2D7C2D572D21080319802D3F
:103AFE00812D862DA209A309A20A0319A30A230860
:103B0E00F8002208F7000800031083120313530D68
:103B1E00540DD5005508DB005B08031D972D982D1D
:103B2E00A12D0030D4000030D3000030D200003080
:103B3E00D100062E5108D5005208D6005308D700E2
:103B4E005408D8001F300310D80CD70CD60CD50C47
:103B5E00FF3E031DAA2D5508D9005908DA00D317C8
:103B6E00FF30D105FF30D205FF30D3050030D4052C
:103B7E009630DB02DB1FC42DC52DDF2D5B08803A8E
:103B8E00973E0318CB2DCC2DCD2D982D0130031043
:103B9E00D40CD30CD20CD10CFF3E031DCE2D013014
:103BAE00D5005508DB07031DDD2DDE2DCD2DF62DA1
:103BBE0020305B02031CE42DE52DF12D982D0130F4
:103BCE00D5000310D10DD20DD30DD40DD50BE82D8C
:103BDE000130DB025B08031DF52DF62DE62D5A088C
:103BEE000319FA2DFB2D062ED109D209D309D409BA
:103BFE00D10A0319D20A0319D30A0319D40A0800E9
:103C0E000A128A11D0270A168A1502308316031754
:103C1E00DD005D08D300D401D50103300A128A15E8
:103C2E0011200A168A150A168A155F240A168A1595
:103C3E000A168A1550210A168A15831203139F1429
:103C4E00831603171003031D2D2E2E2E522E9001B8
:103C5E009F3083160317DD00342EDD0B332E372EE7
:103C6E00831603171208031D3D2E3E2E462E831279
:103C7E0003131F08C33908389F009F14522E1203D6
:103C8E00031D4A2E4B2E522E831203131F08C339C7
:103C9E000C389F009F140A128A1504200A168A15E2
:103CAE0083160317D701D70A01300A168A15A221E7
:103CBE000A168A15913083160317D6008030D70066
:103CCE000A168A15B2230A168A15053083160317AB
:103CDE00DD005D08D70002300A168A15A2210A16E9
:103CEE008A15A63083160317D6008030D7000A1621
:103CFE008A15B2230A168A150B3083160317DD00B8
:103D0E005D08D70002300A168A15A2210A168A15F6
:103D1E00A63083160317D6008030D7000A168A15F0
:103D2E00B2230A168A15831603171108831203137A
:103D3E008700272E0A128A11162800307005F80007
:103D4E0000307105F90080307205FA007F3073057E
:103D5E00FB007B087A0479047804031DB72EB82E75
:103D6E00C02E0030F3000030F2000030F1000030C1
:103D7E00F00000307405F80000307505F900803051
:103D8E007605FA007F307705FB007B087A0479040C
:103D9E007804031DD32ED42EDC2E0030F700003015
:103DAE00F6000030F5000030F400F31FDF2EE02E99
:103DBE00042F0030F8000030F9000030FA00803097
:103DCE00FB007008F8027108031C710FEF2EF02E25
:103DDE00F9027208031C720FF52EF62EFA02730802
:103DEE00031C730FFB2EFC2EFB027B08F3007A08DC
:103DFE00F2007908F1007808F000F71F072F082F5E
:103E0E002C2F0030F8000030F9000030FA0080301E
:103E1E00FB007408F8027508031C750F172F182F76
:103E2E00F9027608031C760F1D2F1E2FFA02770853
:103E3E00031C770F232F242FFB027B08F7007A0831
:103E4E00F6007908F5007808F4008030F30680302B
:103E5E00F70677087302031D3E2F76087202031DC4
:103E6E003E2F75087102031D3E2F74087002031851
:103E7E00412F422F442F0310452F03140800F80042
:103E8E00780803194B2F4C2F602FF31F4F2F502FF5
:103E9E00602F7009FA007109FB007209FC007309AA
:103EAE00FD00FA0A0319FB0A0319FC0A0319FD0A9D
:103EBE00682F7308FD007208FC007108FB00700883
:103ECE00FA007308720471047004031D6F2F702FB3
:103EDE00792F0030F3000030F2000030F100003096
:103EEE00F000FF2F9630F4007408F9008B2F01308C
:103EFE00F4007408F90701300310FD0CFC0CFB0CE8
:103F0E00FA0CFF3E031D832FFE307D05031D902FFF
:103F1E00912F7E2FAD2F0130F4007408F907013078
:103F2E00FA07003003180130FB0700300318013088
:103F3E00FC07003003180130FD0701300310FD0CA3
:103F4E00FC0CFB0CFA0CFF3E031DA52FFF307D056C
:103F5E00031DB22FB32F922FBF2F0130F902013064
:103F6E00F4000310FA0DFB0DFC0DFD0DF40BB82F34
:103F7E00FC1BC22FC32FC92F023079020318C82F82
:103F8E00C92FB42F7918CC2FCD2FD52FFF30FA058E
:103F9E00FF30FB057F30FC05FF30FD050310F90CEB
:103FAE007908F400F501F601F70118300310F40D4D
:103FBE00F50DF60DF70DFF3E031DDD2F7408FA0407
:103FCE007508FB047608FC047708FD0478080319CD
:103FDE00F12FF22FF72FF31FF52FF62FF72FFD17D7
:103FEE007D08F3007C08F2007B08F1007A08F000EF
:023FFE000800B9
:04400E00F120FF3F5F
:00000001FF
